:040000006F00A03EAF
:100004000000000000000000080200000A020000D6
:1000140000000000E80300000000000000000000F1
:10002400E8030000E80300000000000000000000F6
:10003400E803000000000000E803000000000000E6
:10004400E8030000E8030000E803000000000000EB
:10005400E8030000E8030000E8030000E8030000F0
:10006400E8030000E8030000E8030000E8030000E0
:10007400E8030000E8030000E8030000E8030000D0
:10008400E8030000E8030000E8030000E8030000C0
:10009400E8030000E8030000E8030000E8030000B0
:1000A400E8030000E8030000E8030000E8030000A0
:1000B400E8030000E8030000E8030000E803000090
:1000C400E8030000E8030000E8030000E803000080
:1000D400E8030000E8030000E8030000000000005B
:1000E400000000000000000000000000000000000C
:0C00F40000000000000000000000000000
:10010000397101436EC619A0397141536AC866CA74
:1001100062CC5ECE19A0397101535AD056D252D456
:100120004ED64AD826DA22DC06DE330161408282CE
:1001300041114AC026C222C406C68282B24D410184
:10014000024D924C224CB24B4101024B924A224A40
:10015000B2494101024992442244B24041018280A5
:100160003D432A876373C3029377F700BDEFADE584
:10017000937606FF3D8ABA960CC34CC30CC74CC796
:100180004107E36BD7FE11E28280B306C3408A06C3
:100190009702000096966780A6002307B700A30683
:1001A000B7002306B700A305B7002305B700A304D3
:1001B000B7002304B700A303B7002303B700A302CB
:1001C000B7002302B700A301B7002301B700A300C3
:1001D000B7002300B700828093F5F50F9396850052
:1001E000D58D93960501D58D61B79396270097021B
:1001F000000096968682E78086FA9680C1171D8F4A
:100200003E96E374C3F8A5B701A001A0EFF25FF238
:100210003971AA842E841145854532C602D202D492
:1002200002D602D802DA02DC02DE02CC02CE2310B1
:100230000102ED2E9307000C3ED237150140E14735
:100240003ED64C108547130505803ED43D24854598
:100250000945E52EE084370400402C0813050440CE
:10026000E486231F0100231D0100FD2E3246C167D5
:10027000938707060C18130504403ED8231BC102C0
:10028000231C01022D290C181305044055211305C8
:1002900004408545892B130504408145AD2B13058A
:1002A000044081454123130504408545812B854544
:1002B00013050440292B216171BDEFF27FE7411145
:1002C0003704004002C2C1679387070668838A85A6
:1002D000130504403EC002C402C6D52613050440DF
:1002E000854511231305044081453523130504403A
:1002F00085452923854513050440D129410199BD30
:10030000EFF21FE30545CD244D20DD237165130574
:1003100005203D2DB707002083A5070837250000DD
:10032000130585BBF92DA922AA85372500001305E1
:1003300085BCC12D37250000130585BDEF00A07DCC
:100340001306800281451305C003C9355145B537F1
:100350002945E123130580028D3729457D2B014571
:10036000A93F29455D2BDDB7B71702409843B70673
:1003700000F99386F6F51367170098C3D8431367FF
:100380000705D8C3D843758FD8C337270240144315
:10039000F19A14C3144393E6260014C3D843137789
:1003A000F7F0D8C3D843D8C38280B7160240DC42E6
:1003B000918313F7F700B707002093870700BA97D8
:1003C0009C23D4423777DC0293F7F70F130707C05B
:1003D00093F606083356F70099E23356F702B7074B
:1003E000002023A0C708828001A0970100209381EC
:1003F0006149175100201301E1C0172500001305C2
:10040000E588970500209385E5BF1386018263FA8E
:10041000C5008322050023A0550011059105E3EADC
:10042000C5FE13850182938541836377B500232040
:1004300005001105E36DB5FEFD42739002BC8D42CF
:1004400073904280930280087390023097020000FC
:10045000938282BB93E2320073905230EFF0DFF070
:1004600097020000938202EA7390123473002030E6
:10047000B7F7FF1F03A54770828098459377070160
:100480001378F70081C7DC413368F8009441814755
:1004900013F6F60F39C21C410146854E3D4F930FAE
:1004A000800293028004214EB398CE00B3F516016A
:1004B0006391B80213132600B3156F0093C5F5FFBF
:1004C000ED8F33136800B367F3006317F70D232A2A
:1004D00015010506E31AC6FD1CC14166130606F0A8
:1004E000758E3DC23716014093050680631BB50A21
:1004F00083A74180A145854E3D4F930F8002930213
:100500008004414E3393BE0033F666006312C3028B
:10051000139625000116B318CF0093C8F8FFB3F760
:10052000F8003316C800D18F6319F709232A650034
:100530008505E399C5FD371601405CC1930506802A
:100540006312B50823A2F180C16763E6F604504D3B
:100550008147054E3D4F930F800293028004A14EC8
:1005600093850701B315BE00B3F8B6006391150378
:100570009398270033131F011343F3FF3376C3000F
:10058000B318180133E6C800631AF7054CC985078C
:10059000E398D7FD50CD8280E31D57F22328150143
:1005A0000DBF930506C06315B50083A7818099B779
:1005B000E312C5F483A7C18035BFE31B57F6232898
:1005C0006500BDB7930506C06315B50023A4F1808F
:1005D000A5BFE31BC5F623A6F180BDB7E31957FA03
:1005E000B315FE000CD165B723A0A1828280B77736
:1005F000DC02938707C01CC13716024058421183A2
:100600009376F70037070020130707013697142366
:10061000504293F6F60F1376060833D7D70019E247
:1006200033D7D70258C118C558C5828099C5371726
:1006300002401C4F5D8D08CF8280B7170240984F53
:100640001345F5FF798D88CF828099C53717024011
:100650005C4F5D8D48CF8280B7170240D84F13455D
:10066000F5FF798DC8CF82801E21373701401307EF
:1006700007C0C207C1836306E50037070040631661
:10068000E500BA2193F7F7F8D98FFA2193F7F7CF5E
:10069000C207C183D98F1EA1DE215EB59E211EB582
:1006A000B7370140938707C06306F500B7070040DE
:1006B0006314F5009C251EB985475EA982801E3112
:1006C000922103D82500C207C183F99BC207C183C9
:1006D0001EB11E3156211A2DC207C1834207418324
:1006E0001377C7F8518F9225F59BC2063366060132
:1006F000D18F37360140130606C0C1826306C5009C
:10070000370600406310C502B225DD9B03D8E50023
:10071000D18FD221ED9B93F6F6CFD18FD2253366C0
:100720000601D18E56A11AADFA215AB91EB18280A6
:100730001E3165771307F7CFC207C183BD9BC20780
:10074000C1831EB11E31562103D88500C2071396FE
:100750000601162DC18393F7F7FD758F962141820F
:10076000A206558FB62142074183B3E606019206E1
:10077000D58FB7360140C207938606C0C183630692
:10078000D500B7060040631ED502B62593F7F7F7EC
:1007900003D8C5009206D58FD621C207C183920621
:1007A00093F7F7FBD58FFD769386F63FF18EF22512
:1007B000C207C183336606010A06D18E139606016D
:1007C000418252A11AADFA211ABD1EB182801E21AA
:1007D00089C593E717001EA18280C207C183F99BD8
:1007E000C207C183CDBF8357450491C52167D98F07
:1007F0002312F5048280C607C583DDBF1E2189C58B
:1008000093E707081EA18280C207C18393F7F7F719
:10081000C207C183C5BF1E2DC207C183DD9BDD8D0D
:100820000EAD82801A2DFD779387F77FF98FA20591
:10083000CD8FC207C1831EAD8280EFF27F8F162954
:10084000F577FD17F58FF621DA250111D58F1EA951
:100850005625FD779387379FF58FD6212A842EC69C
:10086000D58F9625D58FB625D58F5EA55E29C20773
:10087000C18393F7F7CFD98F5EA908088D3BB7479F
:10088000014093870780B245631EF402F247654733
:10089000B387E7029841930640060A07B3D7E702F9
:1008A00033D7D702B3F7D7021207920793872703EC
:1008B000B3D7D702BD8BD98FC207C1831EA40561F0
:1008C0006FF05F89E247E1B791C55E250967D98F6F
:1008D0005EA582805A25F977FD17F98FD5BF93F56C
:1008E000F51F4EA182800A216D8D3335A0008280D4
:1008F000B707002083A7070837177A0013070720D8
:10090000B3D7E70293F7F70F2383F1821307803EF3
:10091000B387E7022392F1828280B7F700E0D843E1
:100920008146799BD8C303D741823306A70290CB77
:10093000D4CB98431367070198C3984313671702F2
:1009400098C3D843058B75DF9843799B98C3828001
:10095000EFF20FFE2A841165011185452105F93159
:10096000930700403EC23715014085473EC44C0006
:10097000E147130505C03EC6093622C83744014089
:10098000B70708000C08130504803ECC02CA231EDA
:10099000010065358545130504803D3705616FF01D
:1009A0006FFBEFF24FF7B7440140AE893289014443
:1009B00093840480634524014A856FF00FF9930501
:1009C000000426850D3765DDB38789008385070020
:1009D00026850504C205C1811937E9BF1387018146
:1009E0001C43938641833E95636BD500B756002028
:1009F0009386068063E5A60008C33E858280FD5786
:100A0000EDBF39713EDA2ED232D436D63AD842DC36
:100A100046DE9387418122CC804326CA06CEAA8433
:100A200009C41C4C99E32285ED290C4454102686F8
:100A3000228536C6EF007012F2406244D244216132
:100A40008280011126CA4AC806CE22CC4EC652C4A4
:100A5000AA842E8901C51C4D91E3E1219C4C804460
:100A600099E326857D29971700009387671A631BF2
:100A7000F402C0405E24A18BB1C71C48A1C7FD5938
:100A8000294A1C4483450900FD17B1E91CC463DDF4
:100A900007062286A94526856120FD576308F502D1
:100AA000294535A097170000938787186314F40031
:100AB0008044C9B79717000093878713E31CF4FAA3
:100AC000C0444DBFA2852685112A55D97D55F240D7
:100AD0006244D2444249B249224A056182801CC420
:100AE000050963D70700184C63CAE700638845010E
:100AF0001C401387170018C08CA361B72286268577
:100B00000520E31035F9D9B71C401387170018C02A
:100B1000294798A371B793874181AA85884315B760
:100B2000011122CC26CA4AC806CE4EC6AA842E89F6
:100B3000328401C51C4D91E3ED2697170000938781
:100B4000270D6317F406C0401C4C1CC45E24A18B07
:100B5000C1C31C48B5CF1C4808409379F90F1379DD
:100B6000F90F1D8D5C486346F500A2852685692C2A
:100B700025E51C440505FD171CC41C401387170000
:100B800018C0238037015C486388A7005E24858BEA
:100B900081CBA9476316F900A2852685B5240DED02
:100BA000F24062444A85D2444249B249056182809A
:100BB000971700009387C7076314F400804469B750
:100BC000971700009387C702E310F4F8C044ADBF45
:100BD000A2852685212041D17D59D9B7411193871E
:100BE000418126C2844322C44AC006C62A892E8473
:100BF00089C49C4C99E326852D269717000093877E
:100C00002701631BF402C0400317C40093170701B8
:100C1000C18393F68700ADEA93F6070195EEA547E9
:100C20002320F900136707045AA47D55B2402244DB
:100C3000924402494101828097170000938747FF41
:100C40006314F4008044C9B797170000938747FAEC
:100C5000E31CF4FAC0444DBF918B9DC34C5889C925
:100C6000930744046384F5004A853123232A040250
:100C70005E242322040093F7B7FD5EA41C481CC029
:100C80005E2493E787005EA41C4899EB5E2413075B
:100C9000002093F707286385E700A2854A85A121F4
:100CA0005E2413F717001DC35C4823240400B30718
:100CB000F0401CCC1C480145B5FB8317C40013F75A
:100CC00007082DD793E707045EA485B7898B0147F2
:100CD00091E3584818C4F9BFDE25011122CC26CA79
:100CE00006CE4AC84EC613F78700AA842E8479EB35
:100CF000D841634DE000B841634AE0000145F2404D
:100D00006244D2444249B2490561828058547DD739
:100D100003A904009396370123A0040063DB0606B1
:100D200070485E24918B99C75C401D8E5C5899C3B6
:100D30003C401D8E5C540C50814626858297FD57A1
:100D40005A24631DF5009440F54763E8D706B707BA
:100D500040208507B3D7D700858BA5C31C48232225
:100D600004001CC09317370163D80700FD576314B4
:100D7000F5009C4091E368C84C5823A02401BDDDD8
:100D8000930744046384F5002685F526232A04028C
:100D9000B5B70C500146854626850297FD572A8631
:100DA000E311F5F89C40B5DF75476385E7005947C7
:100DB0006393E70423A0240191B7136707045AA49F
:100DC0007D5535BF83A90501E38A09F203A9050012
:100DD0008D8B23A0350133093941014791E3D8496F
:100DE00018C4E35D20F11C540C50CA864E8626853B
:100DF00082976347A0005E2493E707045EA4C9B707
:100E0000AA993309A940F1BF9C49B9CF011122CC5D
:100E100006CE2A8411C51C4D81E72EC61922B24583
:100E2000971700009387C7DE639BF5004C408397BC
:100E3000C50095C722856244F240056171BD9717D0
:100E400000009387E7DE6394F5000C44CDB7971755
:100E500000009387E7D9E39CF5FC4C44C9BFF240FE
:100E6000624401450561828001458280411122C4AE
:100E700006C62A844EA572A523200500232205005C
:100E8000232405002322050623280500232A050024
:100E9000232C0500214681451305C505EFF04FAC15
:100EA00097170000938747B15CD09717000093878E
:100EB00067B31CD497170000938747B75CD4971784
:100EC00000009387A7B900D01CD8B240224441014A
:100ED000828097050000938565F3A9A2411126C27F
:100EE000130680069384F5FFB384C4024AC02E899A
:100EF00022C406C6938544071D262A8401CD2320DB
:100F0000050023222501310508C413868406814586
:100F1000EFF00FA52285B2402244924402494101DC
:100F200082801C4DADE3411106C622C49707000024
:100F3000938767FA1CD5938781819C4323240504FA
:100F400023260504232805046314F50085471CCDDA
:100F50002A841D2848C02285052808C422852D2002
:100F600048C4484001469145113708440546A54507
:100F7000F53D48440946C945D53D85471CCCB2409E
:100F8000224441018280828041119387818126C25F
:100F900084434AC006C69C4C22C42A8999E326850C
:100FA0004937938484048044DC40FD1763D60700EE
:100FB0009C40B9CF8440C5BF0317C40039E7C1774F
:100FC000850723220406232004002322040023246F
:100FD00004005CC423280400232A0400232C0400FA
:100FE000214681451305C405EFF08F97232A04029B
:100FF000232C040223240404232604042285B24063
:10100000224492440249410182801304840671BF44
:1010100091454A85E13588C051FDB1472320F9004B
:101020000144E9BF797122D44AD052CC56CA5AC879
:101030005EC606D626D24ECE2A8AAE8A1304850410
:101040000149054BFD5B09ECB25022544A8592548C
:101050000259F249624AD24A424BB24B4561828000
:10106000044483294400FD1963D409000040E1BF12
:10107000DE24637BFB008397E40063877701A6850A
:101080005285829A3369A90093848406E9BF197155
:10109000A6DAAE848395E500A2DC86DE328463DBCB
:1010A0000500DE2423A0060093F7070885E79307D1
:1010B00000401DA0300836C6EF00D01FB246E34204
:1010C00005FE7247BD67F98F7977BA9793B7170016
:1010D0009CC2F1BF930700041CC0F6506654D6545E
:1010E000014509618280DE25011122CC06CE26CA87
:1010F0004AC8898B2E8489CF930774041CC01CC8EE
:1011000085475CC8F2406244D2444249056182800E
:1011100074003000AA84A53FA2452A8926850122B1
:1011200019E98317C40013F7072069FFF19B93E7C0
:1011300027005EA4D1B7970700009387C7D99CD436
:101140005E2408C008C893E707085EA4A2475CC8ED
:10115000B24781CF8315E4002685EF00501811C5F2
:101160005E24F19B93E717005EA45E243369F900C7
:101170002316240141BFDDC183A7C5FF411122C44D
:1011800006C626C21384C5FF63D307003E94AA8413
:10119000EF00B01B938781829C4381EF23220400E0
:1011A00023A481822244B2402685924441016F00EB
:1011B000F019637EF40014403307D4006396E7000F
:1011C0009843DC43369718C05CC0D9BFBA87D84370
:1011D00019C3E37DE4FE94433386D700631F860082
:1011E0001040B29694C33386D700E31DC7FA10436C
:1011F0005843B29694C3D8C375B76375C400B1475A
:101200009CC04DB71040B306C4006316D70014430A
:101210005843B29614C058C0C0C369B78280011148
:1012200026CA93843500F19806CE22CC4AC84EC611
:10123000A104B14763F3F404B14463E2B4042A891E
:10124000EF00B0109387818298433A8439E0938706
:10125000C1829C4391E781454A85052F23A6A1823F
:10126000A6854A851D27FD5963193507B1472320F7
:10127000F9004A85EF00900D29A0E3D004FCB147A6
:101280001CC10145F2406244D2444249B249056161
:1012900082801C40858F63CF0702AD4663F6F6005F
:1012A0001CC03E9404C031A05C406313870223A499
:1012B000F1824A85EF0090091305B40093074400BA
:1012C00061993307F5405DDF3A94898F1CC05DBF9B
:1012D0005CC3C5B72287404095BF130435007198A1
:1012E000E30285FCB305A4404A854525E31C35FB94
:1012F000B5BF1C46FD171CC663DA0700184E63C550
:10130000E700A9476394F5006FF09F811C422E858A
:101310001387170018C28CA38280011122CC26CA21
:101320004AC84EC652C406CE2A89AE893284B30456
:10133000D6007D5A63149400014501A80C204E8606
:101340004A85453F0504E31745FFF2406244D24415
:101350004249B249224A05618280357122CD26CBAD
:101360004AC94EC706CF52C556C35AC1DEDEE2DCBB
:10137000E6DAAA89AE843289368401C51C4D91E330
:101380004D36971700009387A7886397F40C83A4C2
:101390004900DE24A18BFDC39C48EDC393070002E6
:1013A000A304F1029307000302D22305F10222C62F
:1013B000930B5002971A0000938A8A89054C294B97
:1013C0004A841C2099C3639E770DB30C2441638D1E
:1013D0000C00E6864A86A6854E858137FD57630F49
:1013E000F51C9256E69636D21C206389071CFD57E1
:1013F0001309140002C802CE3ECA02CCA30901049C
:1014000082D4834509001546568525271304190003
:10141000C24751E913F7070109C713070002A309DF
:10142000E10413F7870009C71307B002A309E10419
:10143000834609001307A002638FE606F2474A8439
:1014400081462546182093051400130707FD63778E
:10145000E60AB5CA3ECE85A8970700009387477D68
:101460006395F40083A489002DB797070000938744
:101470002778E390F4F283A4C90021BFA6854E85A6
:10148000EFF0CFF501DD7D55FA406A44DA444A4970
:10149000BA492A4A9A4A0A4BF65B665CD65C0D61E9
:1014A0008280050439BF330555413315AC00C98F1F
:1014B0003EC82289B9B7324793064700184336C65B
:1014C000634707023ACE18209307E002631DF70432
:1014D00018309307A002631BF702B2470904138771
:1014E00047009C433AC663C107023ECA2DA8330792
:1014F000E04093E727003ACE3EC8F1B7B3876703D1
:1015000085462E84BA973DBFFD57C5B7050402CA6C
:10151000814681472546182093051400130707FDCF
:101520006374E606F9F20C200D461705000013055A
:10153000A572012511CD970700009387E7711D8DD6
:1015400093070004B397A700424505045D8D2AC8A0
:101550000C201946170500001305457013091400E7
:101560002304B102F92335C197F7FFFF938787A9B9
:1015700095E74247B2471377071009CF91073EC658
:101580009257D2973ED22DBDB387670385462E84EE
:10159000BA9751B79D07E19BA107D5B77800970689
:1015A00000009386C6D726860C084E85970000005B
:1015B000E7000000FD572A8AE314F5FCDE2493F7C8
:1015C0000704E39207EC1255C1B5780097060000B6
:1015D0009386E6D426860C084E85012AE1BF7971F0
:1015E00056CA9C49BA8A984522D426D24ECE52CCAD
:1015F00006D64AD05AC85EC6AA892E84B284368AD4
:1016000063D3E700BA879CC00347340419C3850736
:101610009CC01C4093F7070281C79C4089079CC06F
:101620000329040013796900631A0900130B94015C
:10163000FD5B5C449840998F634CF9041C408346E1
:10164000340493F70702B336D000A5EB1306340435
:10165000D2854E85829AFD576303F5041C401146DE
:101660009840998B544481446397C700B384E64003
:1016700063D3040081441C4418486354F700998FD5
:10168000BE94014969047D5B63982405014509A85E
:1016900085465A86D2854E85829A631E75017D5590
:1016A000B250225492540259F249624AD24A424BF1
:1016B000B24B456182800509ADBF3307D4001306E4
:1016C0000003A301C7040347540493871600A2979D
:1016D0008906A381E7049DBF85462286D2854E8573
:1016E000829AE30E65FB050945B7797122D426D2AB
:1016F0004AD04ECE06D652CC56CA5AC8B689942D78
:10170000930790063289AA842E8413863504638D4C
:10171000F60263E2D706930780056385F61863ED4A
:10172000D700638D062093073004638EF60A930A70
:1017300024042301D404C9A0930730066385F60A64
:1017400093074006E395F6FE1C40084393F607080E
:1017500093054500C5C61C410CC363D80700130799
:10176000D002B307F040A301E4049706000093867B
:10177000664F294765A8930700076381F61663E55E
:10178000D7029307E0066388F6189307F006E39004
:10179000F6FA0C401C4313F805081385470063074D
:1017A000080608C39C4385A893075007E383F6FE09
:1017B000930780076388F61293073007E399F6F6DC
:1017C0001C43D04181459386470014C383AA070078
:1017D0005685852601C53305554148C05C401CC867
:1017E000A301040461A81C43930A240493864700C0
:1017F0009C4314C32301F4048547D5B793F607042B
:101800001C410CC3B9DAC207C18781BF93F5050437
:1018100008C3C9D99E231307F0066386E60E970610
:101820000000938626442947A30104044C400CC4BD
:1018300063C5050008406D9908C099E3B28A89CD57
:10184000B28AB3F5E702FD1AB6958C212380BA005F
:10185000B3D5E70263FFE70AA147631EF7001C4008
:10186000858B91CB58401C4863C7E7009307000362
:10187000A38FFAFEFD1A3306564110C84E87CA865A
:101880007000A2852685A13B7D5A631D450B7D55C1
:10189000B250225492540259F249624AD24A424BFF
:1018A00045618280A382D504970600009386863B1B
:1018B0000C40084313F805081C411105630D08028C
:1018C00008C313F7150001C793E505020CC0414793
:1018D000A1FF0C4093F5F5FD0CC0B9B79C4193E70F
:1018E00007029CC193078007A302F4049706000037
:1018F0009386863875BF13F8050408C3E30308FC14
:10190000C207C1837DBF970600009386A635214795
:1019100021BFAE873DB794411C43CC4913F806085C
:10192000138547006306080008C39C438CC339A095
:1019300008C393F606049C43F5DA8EA3232804001B
:10194000B28A2DBF14485686CA8526858299E3003F
:1019500045F51C40898B8DE7B2474844E35AF5F2C0
:101960003E853DB785465686CA8526858299E30021
:1019700065F3050A5C443247998FE345FAFEE9BFF7
:10198000014A930A94017D5BF5B7411122C42A8470
:101990002E8523A8018206C6EFF04F84FD576317FA
:1019A000F500938701839C4391C31CC0B24022443D
:1019B00041018280411122C42E848395E50006C630
:1019C0007922634905007C48AA977CC8B24022442A
:1019D000410182805E247D777D17F98F5EA4FDB77B
:1019E000DE25011122CC26CA4AC84EC606CE93F780
:1019F0000710AA842E843289B68991C78395E500A1
:101A00008946014609225E247D777D17F98F5EA401
:101A10008315E4006244F240CE864A86B2494249C8
:101A20002685D244056125A8411122C42E848395C0
:101A3000E50006C6C928FD575A24631AF500FD774C
:101A4000FD17F98F5EA4B240224441018280856770
:101A5000D98F5EA468C8C5BF8395E50005A841116C
:101A600022C42A842E85B285368623A8018206C622
:101A7000EFE03FF3FD576317F500938701839C4325
:101A800091C31CC0B240224441018280411122C452
:101A90002A842E8523A8018206C6C520FD57631718
:101AA000F500938701839C4391C31CC0B24022443C
:101AB00041018280411122C42A842E85B28523A847
:101AC000018206C6C920FD576317F500938701837D
:101AD0009C4391C31CC0B240224441018280411109
:101AE00022C42A842E8523A8018206C65D20FD57C4
:101AF0006317F500938701839C4391C31CC0B240D8
:101B0000224441018280411122C42A842E85B2855B
:101B1000368623A8018206C65920FD576317F500B3
:101B2000938701839C4391C31CC0B240224441016E
:101B3000828093F5F50F2A966314C50001458280D3
:101B40001C21E38EB7FE0505C5BF8280828041114E
:101B500022C42A842E85B285368623A8018206C631
:101B6000A920FD576317F500938701839C4391C318
:101B70001CC0B2402244410182809307800523A803
:101B8000F1827D5582809307800523A8F1827D55DF
:101B900082809307800523A8F18201458280930704
:101BA000800523A8F1827D5582809307800523A8B4
:101BB000F1827D558280000053797374656D436CAA
:101BC0006B3A25640D0A00004368697049443A2560
:101BD0003038780D0A0000004750494F20546F6795
:101BE000676C6520544553540D0000000000000050
:101BF00000000000000000000000000000000000E5
:101C000000000000000000000000000000000000D4
:101C100000000000000000000000000000000000C4
:101C200000000000000000000000000000000000B4
:101C300000000000000000000000000000000000A4
:101C4000000000000000000000000000232D302BE9
:101C500020000000686C4C00656667454647000040
:101C600030313233343536373839414243444546D2
:101C70000000000030313233343536373839616294
:081C80006364656600000000CA
:101C88000102030405060708010203040506070804
:101C980001020304050607080102030405060708F4
:101CA800000000000C1C00002C1C0000EC1B0000B5
:101CB800000000000000000000000000000000001C
:101CC800000000000000000000000000000000000C
:101CD80000000000000000000000000000000000FC
:101CE80000000000000000000000000000000000EC
:101CF80000000000000000000000000000000000DC
:101D0800006CDC0244444444444444444444444451
:101D1800B400002020000020200000200000000067
:00000001FF
